{
  "_format": "hh-sol-artifact-1",
  "contractName": "CollegeContract",
  "sourceName": "contracts/Token.sol",
  "abi": [
    {
      "inputs": [
        {
          "internalType": "contract MinimalForwarder",
          "name": "forwarder",
          "type": "address"
        }
      ],
      "stateMutability": "nonpayable",
      "type": "constructor"
    },
    {
      "inputs": [
        {
          "internalType": "address",
          "name": "_allowedAdmin",
          "type": "address"
        }
      ],
      "name": "addAdmin",
      "outputs": [],
      "stateMutability": "nonpayable",
      "type": "function"
    },
    {
      "inputs": [
        {
          "internalType": "string",
          "name": "_pollList",
          "type": "string"
        }
      ],
      "name": "addPolls",
      "outputs": [],
      "stateMutability": "nonpayable",
      "type": "function"
    },
    {
      "inputs": [
        {
          "internalType": "string",
          "name": "_pollList",
          "type": "string"
        }
      ],
      "name": "addPost",
      "outputs": [],
      "stateMutability": "nonpayable",
      "type": "function"
    },
    {
      "inputs": [
        {
          "internalType": "string",
          "name": "_pollList",
          "type": "string"
        }
      ],
      "name": "addSuggestion",
      "outputs": [],
      "stateMutability": "nonpayable",
      "type": "function"
    },
    {
      "inputs": [
        {
          "internalType": "string",
          "name": "_allowedUser",
          "type": "string"
        }
      ],
      "name": "addUser",
      "outputs": [],
      "stateMutability": "nonpayable",
      "type": "function"
    },
    {
      "inputs": [],
      "name": "getPollsList",
      "outputs": [
        {
          "internalType": "string",
          "name": "",
          "type": "string"
        }
      ],
      "stateMutability": "view",
      "type": "function"
    },
    {
      "inputs": [],
      "name": "getPost",
      "outputs": [
        {
          "internalType": "string",
          "name": "",
          "type": "string"
        }
      ],
      "stateMutability": "view",
      "type": "function"
    },
    {
      "inputs": [],
      "name": "getQuote",
      "outputs": [
        {
          "internalType": "string",
          "name": "currentQuote",
          "type": "string"
        },
        {
          "internalType": "address",
          "name": "currentOwner",
          "type": "address"
        }
      ],
      "stateMutability": "view",
      "type": "function"
    },
    {
      "inputs": [
        {
          "internalType": "string",
          "name": "polldata",
          "type": "string"
        },
        {
          "internalType": "uint8",
          "name": "optionId",
          "type": "uint8"
        }
      ],
      "name": "getScore",
      "outputs": [
        {
          "internalType": "uint256",
          "name": "",
          "type": "uint256"
        }
      ],
      "stateMutability": "view",
      "type": "function"
    },
    {
      "inputs": [],
      "name": "getSuggestion",
      "outputs": [
        {
          "internalType": "string",
          "name": "",
          "type": "string"
        }
      ],
      "stateMutability": "view",
      "type": "function"
    },
    {
      "inputs": [],
      "name": "getUser",
      "outputs": [
        {
          "internalType": "string",
          "name": "",
          "type": "string"
        }
      ],
      "stateMutability": "view",
      "type": "function"
    },
    {
      "inputs": [
        {
          "internalType": "address",
          "name": "forwarder",
          "type": "address"
        }
      ],
      "name": "isTrustedForwarder",
      "outputs": [
        {
          "internalType": "bool",
          "name": "",
          "type": "bool"
        }
      ],
      "stateMutability": "view",
      "type": "function"
    },
    {
      "inputs": [],
      "name": "owner",
      "outputs": [
        {
          "internalType": "address",
          "name": "",
          "type": "address"
        }
      ],
      "stateMutability": "view",
      "type": "function"
    },
    {
      "inputs": [],
      "name": "quote",
      "outputs": [
        {
          "internalType": "string",
          "name": "",
          "type": "string"
        }
      ],
      "stateMutability": "view",
      "type": "function"
    },
    {
      "inputs": [
        {
          "internalType": "string",
          "name": "newQuote",
          "type": "string"
        }
      ],
      "name": "setQuote",
      "outputs": [],
      "stateMutability": "nonpayable",
      "type": "function"
    },
    {
      "inputs": [
        {
          "internalType": "string",
          "name": "polldata",
          "type": "string"
        },
        {
          "internalType": "uint8",
          "name": "optionId",
          "type": "uint8"
        }
      ],
      "name": "vote",
      "outputs": [],
      "stateMutability": "nonpayable",
      "type": "function"
    }
  ],
  "bytecode": "0x60a06040526040518060400160405280600d81526020017f7366766b646a6662766a6c766e000000000000000000000000000000000000008152506000908051906020019062000051929190620002ed565b506040518060400160405280600881526020017f697066734c696e6b000000000000000000000000000000000000000000000000815250600390805190602001906200009f929190620002ed565b506040518060400160405280601581526020017f736a68766277766b76626f77727562766f77726976000000000000000000000081525060049080519060200190620000ed929190620002ed565b506040518060400160405280601081526020017f736b766a62736e6c766b6e6c6b766e7700000000000000000000000000000000815250600590805190602001906200013b929190620002ed565b506040518060400160405280600481526020017f616b7562000000000000000000000000000000000000000000000000000000008152506006908051906020019062000189929190620002ed565b503480156200019757600080fd5b50604051620016a9380380620016a98339818101604052810190620001bd91906200041b565b808073ffffffffffffffffffffffffffffffffffffffff1660808173ffffffffffffffffffffffffffffffffffffffff168152505050600160026000620002096200026160201b60201c565b73ffffffffffffffffffffffffffffffffffffffff1673ffffffffffffffffffffffffffffffffffffffff16815260200190815260200160002060006101000a81548160ff02191690831515021790555050620004b2565b60006200027433620002ab60201b60201c565b156200028a57601436033560601c9050620002a7565b6200029f620002e560201b620009d21760201c565b9050620002a8565b5b90565b600060805173ffffffffffffffffffffffffffffffffffffffff168273ffffffffffffffffffffffffffffffffffffffff16149050919050565b600033905090565b828054620002fb906200047c565b90600052602060002090601f0160209004810192826200031f57600085556200036b565b82601f106200033a57805160ff19168380011785556200036b565b828001600101855582156200036b579182015b828111156200036a5782518255916020019190600101906200034d565b5b5090506200037a91906200037e565b5090565b5b80821115620003995760008160009055506001016200037f565b5090565b600080fd5b600073ffffffffffffffffffffffffffffffffffffffff82169050919050565b6000620003cf82620003a2565b9050919050565b6000620003e382620003c2565b9050919050565b620003f581620003d6565b81146200040157600080fd5b50565b6000815190506200041581620003ea565b92915050565b6000602082840312156200043457620004336200039d565b5b6000620004448482850162000404565b91505092915050565b7f4e487b7100000000000000000000000000000000000000000000000000000000600052602260045260246000fd5b600060028204905060018216806200049557607f821691505b60208210811415620004ac57620004ab6200044d565b5b50919050565b6080516111db620004ce60003960006104bb01526111db6000f3fe608060405234801561001057600080fd5b50600436106101005760003560e01c80638c6838ba11610097578063a632281911610066578063a63228191461028a578063a8aeef70146102a6578063e3de1703146102c2578063ed355834146102de57610100565b80638c6838ba146102145780638da5cb5b1461023257806390ca27f314610250578063999b93af1461026c57610100565b8063572b6c05116100d3578063572b6c051461018c57806368d005af146101bc57806370480275146101da578063832880e7146101f657610100565b806301a667121461010557806303f99b7e14610121578063171755b11461015157806318b8275a14610170575b600080fd5b61011f600480360381019061011a9190610bae565b6102fc565b005b61013b60048036038101906101369190610c34565b610312565b6040516101489190610cad565b60405180910390f35b610159610355565b604051610167929190610da2565b60405180910390f35b61018a60048036038101906101859190610bae565b61040e565b005b6101a660048036038101906101a19190610dfe565b6104b7565b6040516101b39190610e46565b60405180910390f35b6101c461050f565b6040516101d19190610e61565b60405180910390f35b6101f460048036038101906101ef9190610dfe565b6105a1565b005b6101fe61068f565b60405161020b9190610e61565b60405180910390f35b61021c610721565b6040516102299190610e61565b60405180910390f35b61023a6107b3565b6040516102479190610e83565b60405180910390f35b61026a60048036038101906102659190610c34565b6107d9565b005b61027461082b565b6040516102819190610e61565b60405180910390f35b6102a4600480360381019061029f9190610bae565b6108b9565b005b6102c060048036038101906102bb9190610bae565b6108cf565b005b6102dc60048036038101906102d79190610fce565b6108e5565b005b6102e6610940565b6040516102f39190610e61565b60405180910390f35b81816006919061030d929190610a0c565b505050565b600060078484604051610326929190611047565b908152602001604051809103902060008360ff1660ff1681526020019081526020016000205490509392505050565b606060008080546103659061108f565b80601f01602080910402602001604051908101604052809291908181526020018280546103919061108f565b80156103de5780601f106103b3576101008083540402835291602001916103de565b820191906000526020600020905b8154815290600101906020018083116103c157829003601f168201915b50505050509150600160009054906101000a900473ffffffffffffffffffffffffffffffffffffffff1690509091565b6002600061041a6109da565b73ffffffffffffffffffffffffffffffffffffffff1673ffffffffffffffffffffffffffffffffffffffff16815260200190815260200160002060009054906101000a900460ff166104a1576040517f08c379a00000000000000000000000000000000000000000000000000000000081526004016104989061110d565b60405180910390fd5b8181600391906104b2929190610a0c565b505050565b60007f000000000000000000000000000000000000000000000000000000000000000073ffffffffffffffffffffffffffffffffffffffff168273ffffffffffffffffffffffffffffffffffffffff16149050919050565b60606006805461051e9061108f565b80601f016020809104026020016040519081016040528092919081815260200182805461054a9061108f565b80156105975780601f1061056c57610100808354040283529160200191610597565b820191906000526020600020905b81548152906001019060200180831161057a57829003601f168201915b5050505050905090565b600260006105ad6109da565b73ffffffffffffffffffffffffffffffffffffffff1673ffffffffffffffffffffffffffffffffffffffff16815260200190815260200160002060009054906101000a900460ff16610634576040517f08c379a000000000000000000000000000000000000000000000000000000000815260040161062b9061110d565b60405180910390fd5b6001600260008373ffffffffffffffffffffffffffffffffffffffff1673ffffffffffffffffffffffffffffffffffffffff16815260200190815260200160002060006101000a81548160ff02191690831515021790555050565b60606003805461069e9061108f565b80601f01602080910402602001604051908101604052809291908181526020018280546106ca9061108f565b80156107175780601f106106ec57610100808354040283529160200191610717565b820191906000526020600020905b8154815290600101906020018083116106fa57829003601f168201915b5050505050905090565b6060600480546107309061108f565b80601f016020809104026020016040519081016040528092919081815260200182805461075c9061108f565b80156107a95780601f1061077e576101008083540402835291602001916107a9565b820191906000526020600020905b81548152906001019060200180831161078c57829003601f168201915b5050505050905090565b600160009054906101000a900473ffffffffffffffffffffffffffffffffffffffff1681565b600783836040516107eb929190611047565b908152602001604051809103902060008260ff1660ff16815260200190815260200160002060008154809291906108219061115c565b9190505550505050565b600080546108389061108f565b80601f01602080910402602001604051908101604052809291908181526020018280546108649061108f565b80156108b15780601f10610886576101008083540402835291602001916108b1565b820191906000526020600020905b81548152906001019060200180831161089457829003601f168201915b505050505081565b8181600491906108ca929190610a0c565b505050565b8181600491906108e0929190610a0c565b505050565b80600090805190602001906108fb929190610a92565b5033600160006101000a81548173ffffffffffffffffffffffffffffffffffffffff021916908373ffffffffffffffffffffffffffffffffffffffff16021790555050565b60606004805461094f9061108f565b80601f016020809104026020016040519081016040528092919081815260200182805461097b9061108f565b80156109c85780601f1061099d576101008083540402835291602001916109c8565b820191906000526020600020905b8154815290600101906020018083116109ab57829003601f168201915b5050505050905090565b600033905090565b60006109e5336104b7565b156109f957601436033560601c9050610a08565b610a016109d2565b9050610a09565b5b90565b828054610a189061108f565b90600052602060002090601f016020900481019282610a3a5760008555610a81565b82601f10610a5357803560ff1916838001178555610a81565b82800160010185558215610a81579182015b82811115610a80578235825591602001919060010190610a65565b5b509050610a8e9190610b18565b5090565b828054610a9e9061108f565b90600052602060002090601f016020900481019282610ac05760008555610b07565b82601f10610ad957805160ff1916838001178555610b07565b82800160010185558215610b07579182015b82811115610b06578251825591602001919060010190610aeb565b5b509050610b149190610b18565b5090565b5b80821115610b31576000816000905550600101610b19565b5090565b6000604051905090565b600080fd5b600080fd5b600080fd5b600080fd5b600080fd5b60008083601f840112610b6e57610b6d610b49565b5b8235905067ffffffffffffffff811115610b8b57610b8a610b4e565b5b602083019150836001820283011115610ba757610ba6610b53565b5b9250929050565b60008060208385031215610bc557610bc4610b3f565b5b600083013567ffffffffffffffff811115610be357610be2610b44565b5b610bef85828601610b58565b92509250509250929050565b600060ff82169050919050565b610c1181610bfb565b8114610c1c57600080fd5b50565b600081359050610c2e81610c08565b92915050565b600080600060408486031215610c4d57610c4c610b3f565b5b600084013567ffffffffffffffff811115610c6b57610c6a610b44565b5b610c7786828701610b58565b93509350506020610c8a86828701610c1f565b9150509250925092565b6000819050919050565b610ca781610c94565b82525050565b6000602082019050610cc26000830184610c9e565b92915050565b600081519050919050565b600082825260208201905092915050565b60005b83811015610d02578082015181840152602081019050610ce7565b83811115610d11576000848401525b50505050565b6000601f19601f8301169050919050565b6000610d3382610cc8565b610d3d8185610cd3565b9350610d4d818560208601610ce4565b610d5681610d17565b840191505092915050565b600073ffffffffffffffffffffffffffffffffffffffff82169050919050565b6000610d8c82610d61565b9050919050565b610d9c81610d81565b82525050565b60006040820190508181036000830152610dbc8185610d28565b9050610dcb6020830184610d93565b9392505050565b610ddb81610d81565b8114610de657600080fd5b50565b600081359050610df881610dd2565b92915050565b600060208284031215610e1457610e13610b3f565b5b6000610e2284828501610de9565b91505092915050565b60008115159050919050565b610e4081610e2b565b82525050565b6000602082019050610e5b6000830184610e37565b92915050565b60006020820190508181036000830152610e7b8184610d28565b905092915050565b6000602082019050610e986000830184610d93565b92915050565b600080fd5b7f4e487b7100000000000000000000000000000000000000000000000000000000600052604160045260246000fd5b610edb82610d17565b810181811067ffffffffffffffff82111715610efa57610ef9610ea3565b5b80604052505050565b6000610f0d610b35565b9050610f198282610ed2565b919050565b600067ffffffffffffffff821115610f3957610f38610ea3565b5b610f4282610d17565b9050602081019050919050565b82818337600083830152505050565b6000610f71610f6c84610f1e565b610f03565b905082815260208101848484011115610f8d57610f8c610e9e565b5b610f98848285610f4f565b509392505050565b600082601f830112610fb557610fb4610b49565b5b8135610fc5848260208601610f5e565b91505092915050565b600060208284031215610fe457610fe3610b3f565b5b600082013567ffffffffffffffff81111561100257611001610b44565b5b61100e84828501610fa0565b91505092915050565b600081905092915050565b600061102e8385611017565b935061103b838584610f4f565b82840190509392505050565b6000611054828486611022565b91508190509392505050565b7f4e487b7100000000000000000000000000000000000000000000000000000000600052602260045260246000fd5b600060028204905060018216806110a757607f821691505b602082108114156110bb576110ba611060565b5b50919050565b7f556e617574686f72697a65642052657175657374000000000000000000000000600082015250565b60006110f7601483610cd3565b9150611102826110c1565b602082019050919050565b60006020820190508181036000830152611126816110ea565b9050919050565b7f4e487b7100000000000000000000000000000000000000000000000000000000600052601160045260246000fd5b600061116782610c94565b91507fffffffffffffffffffffffffffffffffffffffffffffffffffffffffffffffff82141561119a5761119961112d565b5b60018201905091905056fea2646970667358221220a6884350ecace4e68c291c3033c510e20de42d38e2fa4e45c5bd6cb0c92685d464736f6c63430008090033",
  "linkReferences": {},
  "deployedLinkReferences": {}
}